{
  "contractName": "Bets",
  "abi": [
    {
      "constant": true,
      "inputs": [
        {
          "name": "",
          "type": "address"
        }
      ],
      "name": "livebets",
      "outputs": [
        {
          "name": "",
          "type": "uint256"
        }
      ],
      "payable": false,
      "stateMutability": "view",
      "type": "function"
    },
    {
      "constant": false,
      "inputs": [],
      "name": "openBet",
      "outputs": [],
      "payable": true,
      "stateMutability": "payable",
      "type": "function"
    },
    {
      "constant": false,
      "inputs": [
        {
          "name": "winner",
          "type": "address"
        },
        {
          "name": "loser",
          "type": "address"
        },
        {
          "name": "amount",
          "type": "uint256"
        }
      ],
      "name": "closeBet",
      "outputs": [],
      "payable": false,
      "stateMutability": "nonpayable",
      "type": "function"
    },
    {
      "constant": true,
      "inputs": [
        {
          "name": "",
          "type": "address"
        }
      ],
      "name": "openbets",
      "outputs": [
        {
          "name": "",
          "type": "uint256"
        }
      ],
      "payable": false,
      "stateMutability": "view",
      "type": "function"
    },
    {
      "constant": false,
      "inputs": [
        {
          "name": "amount",
          "type": "uint256"
        }
      ],
      "name": "cancelBet",
      "outputs": [],
      "payable": false,
      "stateMutability": "nonpayable",
      "type": "function"
    },
    {
      "constant": false,
      "inputs": [
        {
          "name": "addr1",
          "type": "address"
        },
        {
          "name": "addr2",
          "type": "address"
        },
        {
          "name": "amount",
          "type": "uint256"
        }
      ],
      "name": "enterBet",
      "outputs": [],
      "payable": false,
      "stateMutability": "nonpayable",
      "type": "function"
    },
    {
      "constant": false,
      "inputs": [],
      "name": "claimWinnings",
      "outputs": [],
      "payable": false,
      "stateMutability": "nonpayable",
      "type": "function"
    },
    {
      "constant": true,
      "inputs": [
        {
          "name": "",
          "type": "address"
        }
      ],
      "name": "winnings",
      "outputs": [
        {
          "name": "",
          "type": "uint256"
        }
      ],
      "payable": false,
      "stateMutability": "view",
      "type": "function"
    }
  ],
  "bytecode": "0x6060604052341561000f57600080fd5b6108ed8061001e6000396000f30060606040526004361061008e576000357c0100000000000000000000000000000000000000000000000000000000900463ffffffff1680631030346914610093578063225afdfc146100e057806329dfe9e0146100ea57806330562a951461014b578063357401f5146101985780634ba767af146101bb578063b401faf11461021c578063ea3a149914610231575b600080fd5b341561009e57600080fd5b6100ca600480803573ffffffffffffffffffffffffffffffffffffffff1690602001909190505061027e565b6040518082815260200191505060405180910390f35b6100e8610296565b005b34156100f557600080fd5b610149600480803573ffffffffffffffffffffffffffffffffffffffff1690602001909190803573ffffffffffffffffffffffffffffffffffffffff169060200190919080359060200190919050506102eb565b005b341561015657600080fd5b610182600480803573ffffffffffffffffffffffffffffffffffffffff1690602001909190505061047e565b6040518082815260200191505060405180910390f35b34156101a357600080fd5b6101b96004808035906020019091905050610496565b005b34156101c657600080fd5b61021a600480803573ffffffffffffffffffffffffffffffffffffffff1690602001909190803573ffffffffffffffffffffffffffffffffffffffff16906020019091908035906020019091905050610589565b005b341561022757600080fd5b61022f610770565b005b341561023c57600080fd5b610268600480803573ffffffffffffffffffffffffffffffffffffffff16906020019091905050610872565b6040518082815260200191505060405180910390f35b60026020528060005260406000206000915090505481565b6102e834600160003373ffffffffffffffffffffffffffffffffffffffff1673ffffffffffffffffffffffffffffffffffffffff1681526020019081526020016000205461088a90919063ffffffff16565b50565b80600260008573ffffffffffffffffffffffffffffffffffffffff1673ffffffffffffffffffffffffffffffffffffffff168152602001908152602001600020541015151561033657fe5b80600260008473ffffffffffffffffffffffffffffffffffffffff1673ffffffffffffffffffffffffffffffffffffffff168152602001908152602001600020541015151561038157fe5b6103d381600260008673ffffffffffffffffffffffffffffffffffffffff1673ffffffffffffffffffffffffffffffffffffffff168152602001908152602001600020546108a890919063ffffffff16565b5061042681600260008573ffffffffffffffffffffffffffffffffffffffff1673ffffffffffffffffffffffffffffffffffffffff168152602001908152602001600020546108a890919063ffffffff16565b50610478816000808673ffffffffffffffffffffffffffffffffffffffff1673ffffffffffffffffffffffffffffffffffffffff1681526020019081526020016000205461088a90919063ffffffff16565b50505050565b60016020528060005260406000206000915090505481565b80600160003373ffffffffffffffffffffffffffffffffffffffff1673ffffffffffffffffffffffffffffffffffffffff16815260200190815260200160002054101515156104e157fe5b61053381600160003373ffffffffffffffffffffffffffffffffffffffff1673ffffffffffffffffffffffffffffffffffffffff168152602001908152602001600020546108a890919063ffffffff16565b50610585816000803373ffffffffffffffffffffffffffffffffffffffff1673ffffffffffffffffffffffffffffffffffffffff1681526020019081526020016000205461088a90919063ffffffff16565b5050565b80600160008573ffffffffffffffffffffffffffffffffffffffff1673ffffffffffffffffffffffffffffffffffffffff16815260200190815260200160002054101515156105d457fe5b80600160008473ffffffffffffffffffffffffffffffffffffffff1673ffffffffffffffffffffffffffffffffffffffff168152602001908152602001600020541015151561061f57fe5b61067181600160008673ffffffffffffffffffffffffffffffffffffffff1673ffffffffffffffffffffffffffffffffffffffff168152602001908152602001600020546108a890919063ffffffff16565b506106c481600160008573ffffffffffffffffffffffffffffffffffffffff1673ffffffffffffffffffffffffffffffffffffffff168152602001908152602001600020546108a890919063ffffffff16565b5061071781600260008673ffffffffffffffffffffffffffffffffffffffff1673ffffffffffffffffffffffffffffffffffffffff1681526020019081526020016000205461088a90919063ffffffff16565b5061076a81600260008573ffffffffffffffffffffffffffffffffffffffff1673ffffffffffffffffffffffffffffffffffffffff1681526020019081526020016000205461088a90919063ffffffff16565b50505050565b6000803391506000808373ffffffffffffffffffffffffffffffffffffffff1673ffffffffffffffffffffffffffffffffffffffff168152602001908152602001600020549050600081141515156107c757600080fd5b803073ffffffffffffffffffffffffffffffffffffffff1631101515156107ed57600080fd5b60008060008473ffffffffffffffffffffffffffffffffffffffff1673ffffffffffffffffffffffffffffffffffffffff168152602001908152602001600020819055508173ffffffffffffffffffffffffffffffffffffffff166108fc829081150290604051600060405180830381858888f19350505050151561086e57fe5b5050565b60006020528060005260406000206000915090505481565b600080828401905083811015151561089e57fe5b8091505092915050565b60008282111515156108b657fe5b8183039050929150505600a165627a7a72305820a448a4f93410677640bb45258ee2761bb8c4c85bc8fc4d74429f3efc108624bd0029",
  "source": "pragma solidity ^0.4.18;\n\nimport \"../node_modules/zeppelin-solidity/contracts/math/SafeMath.sol\";\n\ncontract Bets {\n\n  using SafeMath for uint256;\n\n  mapping(address => uint256) public winnings;\n  mapping(address => uint256) public openbets;\n  mapping(address => uint256) public livebets;\n\n  function openBet() public payable {\n    openbets[msg.sender].add(msg.value);\n  }\n\n  function enterBet(address addr1, address addr2, uint256 amount) public {\n    assert(openbets[addr1] >= amount);\n    assert(openbets[addr2] >= amount);\n\n    openbets[addr1].sub(amount);\n    openbets[addr2].sub(amount);\n\n    livebets[addr1].add(amount);\n    livebets[addr2].add(amount);\n  }\n\n  function closeBet(address winner, address loser, uint256 amount) public {\n    assert(livebets[winner] >= amount);\n    assert(livebets[loser] >= amount);\n\n    livebets[winner].sub(amount);\n    livebets[loser].sub(amount);\n\n    winnings[winner].add(amount);\n  }\n\n  function claimWinnings() public {\n    address payee = msg.sender;\n    uint256 payment = winnings[payee];\n\n    require(payment != 0);\n    require(this.balance >= payment);\n\n    winnings[payee] = 0;\n    assert(payee.send(payment));\n  }\n\n  function cancelBet(uint256 amount) public {\n    assert(openbets[msg.sender] >= amount);\n    openbets[msg.sender].sub(amount);\n    winnings[msg.sender].add(amount);\n  }\n\n}\n",
  "sourcePath": "/Users/adi/work/projects/picolo-wcef/solidity/contracts/Bets.sol",
  "compiler": {
    "name": "solc",
    "version": "0.4.18+commit.9cf6e910.Emscripten.clang"
  },
  "schemaVersion": "1.0.1",
  "updatedAt": "2018-01-14T16:35:45.454Z"
}